:1080000018930020ED8A000031CE0000D98A0000CC
:10801000D98A0000D98A0000D98A0000D98A0000D4
:10802000000000000000000000000000AD8C000017
:10803000D98A0000000000003D8C0000D98A0000B1
:10804000698E0000698E0000698E0000698E000054
:10805000698E0000698E0000698E0000698E000044
:10806000698E0000698E0000698E0000698E000034
:10807000698E0000698E0000698E0000698E000024
:10808000698E0000698E0000698E0000698E000014
:10809000698E0000698E0000698E0000698E000004
:1080A000698E0000698E0000698E0000698E0000F4
:1080B000698E0000698E0000698E0000698E0000E4
:1080C000698E0000698E0000698E0000698E0000D4
:1080D000698E0000698E0000698E0000698E0000C4
:1080E000698E0000698E0000698E0000698E0000B4
:1080F000698E0000698E0000698E0000698E0000A4
:10810000698E0000698E0000698E0000698E000093
:10811000698E0000698E0000698E0000698E000083
:10812000698E0000698E0000698E0000698E000073
:10813000698E0000698E0000698E0000698E000063
:10814000698E0000698E0000698E0000698E000053
:10815000698E000053B94AB9002908BF00281CBF26
:108160004FF0FF314FF0FF3000F00CB8ADF1080CCC
:108170006DE904CE00F008F8DDF804E0DDE9022343
:1081800004B07047704700BF2DE9F04786468C4623
:108190000846089E154674461946002B40F0C180DB
:1081A0008542B2FA82F245D94AB1C2F1200300FAFF
:1081B00002FC954094402EFA03F343EA0C0C4FEA7C
:1081C000154EA8B2230CBCFBFEF80EFB18CC08FB26
:1081D00000F943EA0C43994528D9EB1808F1FF3719
:1081E00004D2994502D9A8F102072B44A3EB090355
:1081F000A4B2B3FBFEFC0EFB1C330CFB00F044EA04
:108200000344A04214D92C190CF1FF3304D2A0422C
:1082100002D9ACF102032C44241A43EA07401EB1F0
:10822000D440002334607360BDE8F0874746DDE743
:108230006346F1E792BB431B01214FEA154EAFB2F3
:10824000200CB3FBFEFC0EFB1C330CFB07F840EAD2
:108250000343984561D9EB180CF1FF3004D29845DF
:1082600002D9ACF102002B44A3EB0803A4B2B3FB88
:10827000FEFC0EFB1C330CFB07F744EA0344A74249
:108280004DD92C190CF1FF3304D2A74202D9ACF11D
:1082900002032C44E41B43EA0040C0E7C2F1200380
:1082A0009540944020FA03F12EFA03F34FEA154E5D
:1082B0009040AFB20343B1FBFEFC0EFB1C10190C47
:1082C0000CFB07F841EA0041884522D969180CF1F6
:1082D000FF3004D2884502D9ACF102002944A1EB59
:1082E00008019BB2B1FBFEFC0EFB1C110CFB07F757
:1082F00043EA01439F420ED9EB180CF1FF3104D23F
:108300009F4202D9ACF102012B44DB1B41EA004140
:1083100093E76046E3E76146F7E76046A4E7634614
:10832000B8E7834206D916B9002108467CE7C6E9BA
:1083300000E0F9E7B3FA83F78FB9834201D37245BE
:1083400008D8BEEB020460EB030301209C461EB973
:10835000002169E73846FAE7C6E9004CF8E7C7F1BB
:10836000200CBB400EFA07F522FA0CF42EFA0CF1A1
:10837000BA401C4320FA0CF3B8404FEA14490143B9
:108380001FFA84FEB3FBF9F809FB18300B0C08FB4D
:108390000EFA43EA00439A4540D9E31808F1FF304A
:1083A00004D29A4502D9A8F102002344A3EB0A03A0
:1083B00089B2B3FBF9F809FB183308FB0EFE41EA5A
:1083C00003418E452CD9611808F1FF3304D28E4544
:1083D00002D9A8F10203214443EA0040A1EB0E01B7
:1083E000A0FB02984145CE46434602D306D14D45F7
:1083F00004D20138B9EB020E68EB0403002EA7D0BB
:10840000B5EB0E0261EB030101FA0CFC22FA07F353
:10841000F9404CEA0303C6E9003199E74046C5E755
:108420004346D9E710B40A78022A03D0052A15D0AA
:1084300010BC7047CB68012BFAD1D1E90123D35C82
:10844000312B03D1094810BC04F01BBB322B01D1E6
:108450000748F8E7332BEBD10648F4E783680A2294
:10846000DC680549A446642310BC604798DE000020
:1084700090DE000088DE0000B885002038B5214C71
:10848000206805F09CF920B91F4804F004FB012086
:1084900038BD1E4805F093F908B91D48F5E71D4899
:1084A00004F0D5FA0028F2DB1B4804F0D0FA0028CB
:1084B000EDDB1A4804F0CBFA0028E8DB206883687B
:1084C0001B68002BE3D00022154998470028DED115
:1084D000206883686D225D6812494FF0FF33A8471A
:1084E0000028D4D1206883680A22DC680E496423FE
:1084F000A0470028CBD100214FF4004003F020FE1C
:10850000F9E700BFD0800020E8DF00002CDC00008D
:1085100000E0000098DE000090DE000088DE000031
:108520002584000020820020B8850020014B1B68B4
:10853000184700BFD4800020014B1860704700BF6F
:10854000D480002030B585B004460D4610220021AD
:10855000684605F018FB02238DF80230044B2A46CA
:1085600021466846019304F017F805B030BD00BFFE
:108570002D85000080B505460E461746984603F047
:10858000F9FD034605F008FB0446DFF81890424663
:1085900049F8003039463046A84754F8090000F041
:1085A0001FFB00BF080000002DE9F047058B0446C3
:1085B0002807904611D4022905F0070540F0CD8028
:1085C000204604F055FB78B10138218B042811D8DE
:1085D000DFE800F0C3106D85950001290CBF45F060
:1085E000100545F02005258388F31188BFF36F8FB0
:1085F000BDE8F08701F0070AAA4500F0A680002731
:10860000B9463E46A368002B00F0BD8041F008014A
:10861000218388F31188BFF36F8FA168002900F0D0
:10862000BB800D68002900F0B780334652462046D3
:10863000D1F80480C047002D76D02B6829461D460E
:10864000F0E701F007035A1F012A1BD8002221F08E
:108650000701062B276889B2C4E9002209D13B46ED
:1086600003E0628B013262831B68002BF9D141F079
:1086700002012046218304F0FBFA00287BD041F060
:10868000200177E0042B0AD121F0070189B22046AE
:10869000218304F0EDFA10B141F020012183218BF8
:1086A00001F0070AAA4550D00027B946AAE7236976
:1086B00021F0070141F00601062DD3F80090218337
:1086C0002DD1B9F1000F40D041F00801218388F38A
:1086D0001188BFF36F8F20463949C84729E021F040
:1086E0000701236941F0040189B2042DD3F80490F5
:1086F0002183E6D000274FF0040A3E4682E721F0AE
:108700000701236941F0050189B2052DD3F80890CE
:108710002183D6D000274FF0050A3E4672E7002796
:108720004FF0060A3E466DE72B4687E7B9F1000F8A
:10873000D1D14FF02003EFF3118883F31288BFF3F8
:108740006F8F238B23F008032383258BEA062ED516
:1087500025F01003238305F007056669218B002EA1
:10876000BFF66FAF00232768C4E9003321F007018B
:1087700041F001012183218B4FF0000901F0070A2C
:10878000AA457FF43FAF002F9BD041F00801218321
:1087900088F31188BFF36F8F002FC7D03D6839462B
:1087A00033465246204604F08FFA2F46F4E7AB06D4
:1087B0007FF51AAF25F02003238305F00705FFE6B8
:1087C000F5CC0000014B036000207047A0DE0000E4
:1087D00030BFFFF7FDBF00BF114B124A2DE9F0413A
:1087E000D518013DB5FBF3F5DFF83C805D430F4B39
:1087F000074608EB0304013CB4FBF3F403FB045409
:108800000E1B30460A4905F0B1F9701942460021A5
:10881000083E05F0B8F93E6704F10800BDE8F081B4
:10882000010000000000000004000000040000003F
:108830007CDE0000044B99685869884203D00349E4
:108840004FF080520A6070478885002004ED00E0F8
:10885000154B9A6A12F0007F9A6A14BF1E201D20E1
:1088600012F0807F9A6A18BF1F2012F4801F9A6A44
:1088700018BF022012F4002F9A6A18BF212012F4A8
:10888000802F9A6A18BF222012F4003F9A6A18BFFC
:10889000232012F4803F9A6A18BF24206FEA024214
:1088A0006FEA12429A62704700ED00E010B5194B72
:1088B0000246986A9C6A10F4805F14BF1720162045
:1088C00014F4006F9C6A18BF1820A40509D5986B92
:1088D000986A000404D51AB19A6A22F400429A6296
:1088E00019200C4B9A6A12F4806F9A6A18BF1A20EA
:1088F000D2050CD49B6A13F4005F18BF1C20054AF4
:10890000936A43F47F43936200230B7010BD1B20D6
:10891000F5E700BF00ED00E010B51C4B0246986A79
:108920009C6A10F0100F14BF1120102014F0080FD3
:108930009C6A18BF1220A40709D5586B986A0006D4
:1089400004D51AB19A6A22F080029A6213200F4B62
:108950009A6A12F0010F9A6A18BF142012F0200FC1
:108960009A6A18BF1520D40658BF9B6A074B9A6AAB
:10897000920642BF5A6A22F400525A629A6A42F040
:10898000FF029A6200230B7010BD00BF00ED00E0F3
:10899000F0B54A4B04465B6800258BB0C3F308036F
:1089A00085F31188BFF36F8F02F07F40B0F17F4FE6
:1089B00016D1D60714D4550603D4100704D40125C4
:1089C00004E012F0040200D00C4600250022033B14
:1089D0008DF80720032B05D8DFE803F02462665FDB
:1089E0002C46F3E700239DF80720CAB902AE04F134
:1089F0002007324620686168083403C2BC4216462C
:108A0000F7D1099A002D53D0C2F3080121B96FEABA
:108A100052226FEA42220992184602A904F002FA91
:108A20000BB0F0BD254BDA6A9107DBD4DA6A002A75
:108A3000D8DBDA6A5200D5D55A69A16942F480724E
:108A40005A61BFF34F8FBFF36F8F5A6931F8021C21
:108A500022F480725A61BFF34F8FBFF36F8F4DF6D0
:108A60000272914201D12368BDE79A6AD2B232B153
:108A700001200DF10701FFF74FFF0346B3E79A6AA4
:108A800012F47F4F05D001200DF10701FFF70EFF13
:108A9000F3E79B6AB3F5803FA4D3FFF7D9FEECE779
:108AA00000200DF10701E6E700200DF10701EDE7D9
:108AB00022F4FF7222F00102ADE700BF00ED00E0FA
:108AC000044B5A6942F010025A615A6942F48062BA
:108AD0005A61704700ED00E0EFF30880EFF3098181
:108AE00001B57246FFF754FF01BD00BF002080F3BF
:108AF0001488BFF36F8F002080F30A8880F30B88FF
:108B000000F036FC00200E490860BFF34F8F0D487F
:108B100080F3088800F03EF8202080F311880A488E
:108B20004FF40061401880F30988EFF314800221AC
:108B3000084380F31488BFF36F8F00F0F9F800004A
:108B400094ED00E018930020D8850020BFF34F8FEC
:108B50000549064BCA6802F4E0621343CB60BFF3D9
:108B60004F8F00BFFDE700BF00ED00E00400FA05F5
:108B7000002318460649D1F89020C2F307229342F9
:108B800000DB7047C1F89830C1F8A0000133F6E768
:108B900000ED00E010B572B6002484F31388FFF7EF
:108BA000E7FF23464FF0FF300C4A03F12001013369
:108BB000102B42F82100F8D100234FF0FF30074A74
:108BC00003F160010133102B42F82100F8D162B6A5
:108BD000BFF34F8FBFF36F8F10BD00BF00E100E008
:108BE000084B9B6883420BD1EFF3058343B1064BDF
:108BF0005A6842F080525A605A6A22F400425A621D
:108C000004F0ECBE8885002000ED00E06FF00A0162
:108C1000084A93689967084958674B6843F080533E
:108C20004B60002383F31188BFF36F8F9368986FB5
:108C3000704700BF8885002000ED00E018498A6871
:108C400082F87DE04FF030001044EFF3098C80E8AB
:108C5000F01F202080F31288BFF36F8F114F4FF069
:108C600000664A698A603E604FF0700414192068FB
:108C70000D4C206092F97DE0506F0023536780F324
:108C8000118802F1300090E8F01F8CF3098802F19E
:108C9000000004B504F0D9F8BDE8044070470000B6
:108CA0008885002004ED00E0F08300201EF0040F12
:108CB0000CBFEFF30880EFF30980816911F8021C03
:108CC0000229FFD001B504F0AFF801BD40B2002881
:108CD00007DB01234109034A00F01F00834042F8EB
:108CE0002130704700E100E0054B420953F8222093
:108CF000012300F01F0003FA00F01040704700BF8E
:108D000000E100E040B2002801F10101ACBF00F138
:108D10006040064B4FEA4111C9B2ABBF00F561405C
:108D200000F00F0080F800131954704714ED00E0B4
:108D30000B4A08B50B4B22F07F029A60BFF34F8FAE
:108D4000BFF36F8FD3F8882022F47002C3F8882015
:108D500002F0D2FC03F014FA00F07AF802F016FDEB
:108D60000080000000ED00E042F8203C009B0C4930
:108D700042F81C3C019B21F0010142F8183C029B87
:108D800042F8081C42F8143C4FF0807342F8043C4F
:108D9000002343674FF43C43203A0265C3677047A2
:108DA000758500000A4B046F98600A4B1C60036EC7
:108DB00083F30B88104681F30988002163B681F3A1
:108DC0001188BFF36F8F00220023FFF7D3FB00BF92
:108DD00088850020F0830020014910220A60704736
:108DE00010ED00E072B6404080F31188BFF36F8F42
:108DF00001B500F077FA00280AD0BFF34F8F30BFDB
:108E000000BF00BF00BF00BF00BF00BF00BF00BF6A
:108E1000BDE8014062B6BFF36F8F704772B649403C
:108E200081F3118801B500F05DFA00280AD0BFF384
:108E30004F8F20BF00BF00BF00BF00BF00BF00BFFB
:108E400000BF00BFBDE8014080F3118862B67047E3
:108E5000002320210348C2180133452B82F8001358
:108E6000F9D1704700E100E001B5EFF30580A0F112
:108E700010004FEAC0000449014409C99847BDE801
:108E8000014002490847000054DC0000358800001A
:108E90001FB5094C094A23460121094800F0EAF8A8
:108EA00000230393074B0121E41A01A801930294C4
:108EB00000F0EAF804B010BD000007200080002098
:108EC000A0DE0000B082002010B50C7A0B6804F020
:108ED0001F0223F01F031A43CB68640923F01F030A
:108EE000054943EA440343F00103C1F89800C1F87F
:108EF0009C20C1F8A03010BD00ED00E02DE9F04F3E
:108F00000F46144606464FF000084E4D85B0B84552
:108F100080F29480D6F80490B9F1000F36D0B9F100
:108F20001F0F40F2898019F01F0F40F08580D6F89E
:108F300000A01AF01F0F7FD1504603F08AFF83462E
:108F400009EB0A00013803F084FF834574D11BF15B
:108F5000160F71D05C456FDDC5F898B0D5F89C1040
:108F6000C5F898B0D5F8A03021F01F0143F01F0AD2
:108F7000D6E900321A44994202F1FF391ED1CA459E
:108F800008D131465FFA8BF003F06CFF08F101085D
:108F90000C36BCE73146C5F898B0D5F89C3022F0C5
:108FA0001F0203F01F031343C5F89C30E0B203F027
:108FB00059FF10F1160F3FD0441CE7E7C5F898B0F1
:108FC000D5F8A020013B23F01F0302F01F0213433A
:108FD000CA453146E0B2C5F8A030E8D003F042FF00
:108FE00010F1160F28D0C5F898B0D5F89C209DF840
:108FF00008300AF1FF3A62F304038DF80830D5F81F
:10900000A0309DF808205B0863F347128DF8082014
:10901000D6E900321344009323F01F03411C53444C
:10902000A3EB0903C8B223F01F030728039303D857
:109030006946FFF749FFBFE76FF01504204605B00A
:10904000BDE8F08F00ED00E00522044BC3F894204A
:10905000BFF34F8FBFF36F8F704700BF00ED00E08D
:10906000BFF35F8F0022024BC3F89420704700BF0C
:1090700000ED00E010B5034C2278FFF73FFF2070B1
:1090800010BD00BFC28500202DE9F74F294D8A464B
:1090900006464FF00008AB46274FD0451BDAD6F8FE
:1090A0000490B9F1000F3FD031680846019103F0F8
:1090B000D0FE0199044609EB0100013803F0C9FE16
:1090C00084424FF014021D4B08D002FB08F36FF0EE
:1090D00015024BF8032003B0BDE8F08F14F1160F12
:1090E0002C60F8D01978A142F5DD02FB08B0C7F872
:1090F0009840C7F89840D7F89C4000F10801007BE1
:1091000064F304000871D7F8A0000C79400860F3FC
:1091100047140C71D7F89C1021F01F016960D7F833
:10912000A01021F01F01296108F1010814350C3647
:10913000B3E700BFF483002000ED00E0C28500200B
:10914000F0B5384D87B02C68082C67D80020FFF7A1
:1091500087FF354B354AC3F8C02084420DD1344DCA
:1091600001A82C70FFF72EFB00240646314FA642C3
:109170000AD1FFF769FF00204EE0696801EB00119A
:10918000FFF7A2FE0130E8E70199200101EB04138B
:10919000DA683A40B2F5001F22D0B2F5800F2CD029
:1091A000B2F5801F36D15A689B680958013B22F0FE
:1091B0001F0003440120844623F01F0340EA4C10A3
:1091C0008DF810002878CDE902210728059321D8D1
:1091D00002A9FFF779FE2B78013401332B70C6E723
:1091E0005A689B680958013B22F01F0003444FF066
:1091F000020C012023F01F03E0E75A689B6809581E
:10920000013B22F01F0003444FF0000C062023F026
:109210001F03D3E76FF0150007B0F0BD4FF0FF302C
:10922000FAE700BFACDE000000ED00E0AAFF44005A
:10923000C28500200000F0FF08B5024B1B6898476C
:10924000002008BD08840020034B044A186093786E
:1092500043F002039370704708840020D8800020F8
:1092600008B50649064821F00701C1F1005202F590
:10927000E02203F0A5FC002008BD00BF1F930020E2
:109280000C84002007B50DF1070004F0EFF9114B35
:1092900098421CD14FF480620F4B1049C3F8B82597
:1092A0004FF40062C3F83C259DF8070004F0D2F9A2
:1092B0000B499DF8070004F0C8F901209DF807301C
:1092C000984001F0ABFB002003B05DF804FB6FF0A9
:1092D0000B00F9E70000AD0B00A002402CA00240FB
:1092E00028A10240052370B5144D154E2C78013489
:1092F000B4FBF3F303EB8303E41A04F071F9114AAE
:10930000137823B156F82430C01A072813D90E4B0E
:10931000D3F8141141B10021C3F81411D3F814315A
:109320002C700CB9012313702C7804F059F946F80D
:109330002400012070BD0020FCE700BFC485002090
:1093400018840020C38500200050004048B1054B20
:10935000054A1B68B3FBF2F35843044B43F0010387
:10936000184770470881002040420F0080DE00004F
:1093700004F067B9084B70B5C31A0D4607499B1036
:10938000044659434022064803F0B8FD2B460146E7
:109390002046BDE87040184740840020B76DDBB61A
:1093A00004DC0000402373B50B4C0093041B0B46F8
:1093B0000D460A49A41061430646094A094803F0CC
:1093C000CAFD011E05DA30462B4602B0BDE87040EA
:1093D000184702B070BD00BF40840020B76DDBB6F7
:1093E000C3CF000004DC00002DE9F8430022012176
:1093F00006460520FFF786FC114801F0C1FB114B22
:10940000984219D101F0CCFB00244FF01C090C2725
:10941000DFF834803569414609FB045003F078FCDD
:10942000002807DB012307FB04551C44042CAB6711
:10943000F0D10020BDE8F8836FF00400FAE700BF28
:10944000819400000000AD0BD4DE000001460C2327
:1094500000224B4370B50848C41878331844D4E947
:109460001C56226703F037FD2DB132462B46BDE86E
:1094700070400248184770BD4084002004DC0000A2
:10948000062812D8DFE800F0040F1111110D0B00AF
:10949000064B986F10F0070007D1FFF7D7BF0220E7
:1094A000FBE70320F9E70120F7E77047408400203D
:1094B00008B54FF02003EFF3118183F31288BFF357
:1094C0006F8F114A136843F002001060DA0708D466
:1094D00081F31188BFF36F8FBDE80840012001F0D0
:1094E00077BB0A4BD3F80C24D3F80C34DB07EFD549
:1094F000074803F0F0FC81F31188BFF36F8FBDE8DC
:1095000008400020FFF7A2BFE08400200050004088
:10951000B88400201FB500220123CDE902236B4649
:10952000084ACDF800D0CDF804D003F043FD002860
:1095300005DB4FF480420023684602F0F9FA05B0DB
:109540005DF804FBF9CF000010B54FF02003EFF3F6
:10955000118483F31288BFF36F8F074A136823F0D7
:109560000201DB07116002D4012004F081F884F3CA
:109570001188BFF36F8F10BDE08400202DE9F0410A
:10958000012207463549D1E8EF3FC1E8E02F002826
:10959000F9D133B9324933484B60CB608A6003F06C
:1095A000CAFB7B1E012B28D8012F06D12E4BD3F8E6
:1095B0001C3403F00303022B1FD004F00FF90546FF
:1095C000E8B92A4B1B78D3B102220646264BC3F8D2
:1095D0000823254CDFF89880D4F81824D4F81834E0
:1095E000D20316D503F00303022B01D0012F10D1B3
:1095F00075B386F31188BFF36F8FBDE8F0814FF02C
:109600002003EFF3118683F31288BFF36F8F0125D8
:10961000DFE7C5B13046FFF701FCD4F81835DBB2FF
:10962000012BD9D1D4F80421002AD5D00022C4F8C6
:109630000421D4F804210222C4F818252022C8F8F5
:109640008021A360C8E70021212002F079FDE4E732
:109650000222054BC3F80423CFE700BF3C8400205F
:109660002C8400205C84002000500040CF85002026
:1096700000E100E008B5074804F0A1F838B1064859
:10968000FFF7E2FD0448FEF757FF002008BD6FF02A
:109690001200FBE740DC00009D9600000A2838B568
:1096A0000446074D04D1AB680D212846DB69984775
:1096B000AB680348DB69E1B29847204638BD00BF7C
:1096C00040DC0000F0B5406801F01F04057B87B066
:1096D00044EA45140569002D63D0B2F5001F00F17E
:1096E000100506D12146284604F062F8002007B094
:1096F000F0BD0027B2F5800F01AE0197776039D138
:10970000B3F1007F14BF052304238DF80430002338
:10971000CDE904630393836823FA01F111F0010199
:109720001AD1B2F1A07F17D104F01F03620903F12F
:1097300080032AD0012A3AD11E4A52F82330DB078F
:109740000AD40DF1030632462146284601F0A2FE56
:10975000194B98421BD002962146284603AA01F0D5
:10976000F9FC164B98421FD101222146284601F0F0
:1097700015FFBBE7B3F1C06F05D0B3F1007F14BF95
:1097800001230223C1E70323BFE70D4AD5E7314692
:10979000284601F0F7FE094B9842DCD06FF00B0031
:1097A000A5E76FF08500A2E76FF015009FE751F87D
:1097B0002330FFDE002884400400AD0B0000AD0B19
:1097C0000025844038B545682B69B3B1103528466B
:1097D00001F0BEFE044680B90146284601F078FE3D
:1097E000084B98420BD122462846074901F044FE17
:1097F000224605212F20FFF785FA002038BD6FF0A3
:109800000400FBE70000AD0B0D9800004209034681
:1098100070B502D0012A17D070BD0D4E3269516863
:109820000029F9D0012503F01F030C689D40002991
:10983000F2D08A682A4002D030464B6898472CB153
:10984000236821461C46F2E7024EE7E72346F8E785
:109850002CDC000018DC00002DE9F04340F2063556
:109860004668D00648BF0320337B02EA050558BF8F
:10987000C2F3401087B001F01F07B5F5837F14468F
:1098800047EA43178DF8030043D00FD8062D18D0B0
:1098900007D8B5B1022D3ED06FF0150007B0BDE876
:1098A000F083B5F5807FF7D101250AE040F202226E
:1098B000954232D0B5F5407F31D0B5F5007FEBD180
:1098C000022522032DD5012372688B4093603269F3
:1098D00082BB07F01F037F092AD0012F77D13E4AB0
:1098E00002EB830284F48033D2F80012C3F3004306
:1098F000C4F3404444EA430421F4706144EA800420
:1099000021F00F0144EA05230B43C2F80032002086
:10991000C4E70725D5E70425D3E70525D1E70325C7
:10992000CFE7630341BF012372688B40D360CEE76A
:109930002A4AD5E71036394630460DF1020201F0C9
:10994000A9FD14F4403F80460CD13946304603F05F
:109950002DFF234B9845DAD130469DF8021001F0D7
:1099600005FED4E74FF0000901AB3946304603AAA3
:10997000CDE90439CDE90199CDF80C9001F0EAFB6D
:10998000174B984288D114F4003315D09DF803305A
:1099900084F48034C4F300448DF80E3039464B46CD
:1099A000304603AA8DF80C508DF80D4001F0C8FC2C
:1099B0000B4B9842CDD06FE7CDE9043339460DF11A
:1099C0000303304603AA039301F0C4FBF0E780339E
:1099D00052F82330FFDE00BF002884400025844079
:1099E0000000AD0B036803F01F025B09026004D0A6
:1099F000012B034818BF002070470248704700BF82
:109A000000288440002584402DE9F04F1546824609
:109A1000DFF88C81DFF88C9185B000EB8101514536
:109A200003D1002005B0BDE8F08FDAF80030C3F3B1
:109A30004322082A03F07F0400F2AC807F2C4FEA17
:109A4000134308BF4FF0FF3418F80270222B00F2C6
:109A5000A480DFE803F012191F22252B22A2A2A264
:109A6000A23B67A2A2A2A2A2A2A2A2A26A7F828510
:109A7000A2A2A288909396999C00C5F80C45601C00
:109A80005DD10AF1040ACAE7C5F81445621CF8D092
:109A900000265DE0C5F80845F1E7C5F81045F5E793
:109AA000631CC5F80845ECD0002604E0661CC5F828
:109AB0000C45E6D001264FF0010B03A80394FFF7F5
:109AC00091FF039B0BFA03F3C36008E0C5F8084558
:109AD000002FDBD1631CD4D000260627B346DAF86A
:109AE000003003A803F40052002A1CBF01264FF0E7
:109AF000000B01930394FFF775FF039A019B00EBA2
:109B00008200D0F80022C3F3C1143B0243EA84036D
:109B100043EA0B0302EA0902134343EA4603C0F88F
:109B20000032AEE7C5F80C45D2E7C5F86045601CC9
:109B3000DAF80030A5D0C3F38033002BBAD0012669
:109B400003A80394FFF74EFF039B06FA03F3836019
:109B5000B346C4E7C5F86445E9E7C5F86845E6E7F4
:109B6000C5F86C45E3E7C5F82445621C89D0012699
:109B70004FF0000BB3E7C5F8284580E7C5F830453E
:109B8000F3E7C5F83445F0E7C5F83845EDE7C5F823
:109B90003C4574E76FF0150044E76FF0850041E73E
:109BA0004DE00000F0F0FCFFF7B51D4643680646A7
:109BB0000469D3F800C04FF02003EFF3118783F35B
:109BC0001288BFF36F8FE368D86838B187F31188C4
:109BD000BFF36F8F6FF00F0003B0F0BDDA60E36882
:109BE00099604FF48003CCF8043301F06043B3F183
:109BF000005FE36811D11961E3685A61214630467C
:109C000003F0CEFB87F31188BFF36F8FE37A012B4C
:109C100001D16B1C06D10020DEE7D861204603F09D
:109C200038FBEBE74FF4004600210A4825EAE575CA
:109C30000023C5FB0601084AFEF78CFAE4680246D9
:109C40000B46203400200021CDE90001204602F01F
:109C500063FCE0E73F420F0040420F002DE9F7436D
:109C600007464FF00008002201210820FFF74AF8BC
:109C70000820FFF72BF87E683D6934684146C4F838
:109C800000852F60D6F80C9001AA484603F004FA2C
:109C900000283FDB019BD9F8002019791868FFF7ED
:109CA000B3FE002836DB6B7AD7F810C0012B03D047
:109CB000032B2DD14FF01008AB7A032B28D195F848
:109CC0000BE0BEF1000F02D0BEF1010F20D1297AC6
:109CD000012922D0022924D0D1B90A466B687868BC
:109CE000B3F5164F006800F0F1803AD8B3F5165F6F
:109CF00000F0EF8020D8B3F5966F00F0EC8012D81A
:109D0000B3F5967F00F0EA80B3F5167F00F0E980A6
:109D10006FF0850003B0BDE8F0834FF480720E2130
:109D2000DCE70022FBE7B3F5166F00F0DD80B3F54A
:109D3000965FEDD1814B45E0B3F5E14F00F0D78060
:109D400008D8B3F5615F00F0D480B3F5964FDFD14A
:109D50007B4B37E047F612294B45D9D14FF400032E
:109D600030E0B3F5613F00F0C68015D8B3F5963FFB
:109D700000F0C4800AD84DF6C0294B4500F0C080E1
:109D8000B3F5614FC4D14FF46B031BE0B3F5E13F72
:109D9000BED14FF0EB7315E0B3F5612F00F0B38047
:109DA0000AD8DFF8A0914B4500F0B080B3F5E12F61
:109DB000AED14FF0E86305E0DFF88C914B45A7D1B9
:109DC0004FF08053C0F824357B6848EA01081B68CF
:109DD00042EA0E0242EA0802C3F86C250CF10403C1
:109DE000D5E9010183E803007368990713D505F1EC
:109DF0001C0000F0AFFF554B984240F09C80287F3C
:109E000004F10C0204F5907103F029FC01202B7F72
:109E1000984000F003FEEB68002B7AD004227B68A8
:109E2000D7F810801B68C3F804230122D8F80C105F
:109E3000C1F8C0204649C3F804130821C3F800152F
:109E4000D3F84C11A1B15A60D3F844211AB9D3F810
:109E50002421002AF8D00022C3F84C21D3F84C1159
:109E6000C3F81021D3F81011C3F84421D3F84431BA
:109E7000D8F80C0000223749803003F0ECFDD8F808
:109E80000C30C3F8B480D8F80C00002232492030DE
:109E900003F0E1FDD8F80C30C3F85480736800205B
:109EA0009A075CBF4FF48073C4F804337368DB0611
:109EB00044BF4FF48003C4F804336B69C4F84435DD
:109EC0000123C4F84805A360E36023E74FF41D03B2
:109ED00078E7224B76E74FF49E2373E74FF4A033E5
:109EE00070E74FF41C336DE74FF41D236AE71C4BFA
:109EF00068E71C4B66E74FF06C7363E71A4B61E74A
:109F00004FF465035EE74FF070635BE74FF08063EB
:109F100058E70823C4F80035337A002BBED1C4F8C3
:109F20001031D4F81031AB69C4F834350123C4F8CA
:109F300038352360B2E76FF00400EBE600B01300A1
:109F400000A04E0090D0030040420F000000AD0B77
:109F500010020A00EDD40000C1D500000050270017
:109F600000C0750000F03A0000903A012DE9F04180
:109F700004460E46056903F031FCB0B92A4B1B7844
:109F80009BB16427606803F0FBF9002838D10120F9
:109F900003F059FB013FF5D10021212002F0D0F858
:109FA000EFE781F31188BFF36F8F4FF02003EFF3DA
:109FB000118183F31288BFF36F8FD4F804800F46AA
:109FC000404603F0DDF90028EBD0EB685BB1DA68BE
:109FD0004AB1D3F8BC20002A05DAD8F80020D2F81C
:109FE0004C25C3F8BC206B6901221E7020466969AC
:109FF00003F06CF887F31188BFF36F8FBDE8F08131
:10A000004FF02003EFF3118183F31288BFF36F8FBA
:10A0100060680F4603F0B4F90028E4D181F3118899
:10A02000BFF36F8FB8E700BFCF8500202DE9F04167
:10A03000436804461D6888B0D5F80811036969B102
:10A040000022C5F80821D5F80821DA68D2F8B8301E
:10A050000133C2F8B83008B0BDE8F081D5F824313A
:10A0600023B3C5F82411D5F82431436814221B68A2
:10A0700003A8D3F88064C3F8806403F084FD06234A
:10A08000F2078DF80C3000F10C81B30700F10B8161
:10A09000770700F10A8106F00806204603A98DF82B
:10A0A000106003F03BF8204603F0CEF8D5F81031ED
:10A0B000002B33D0D5F80433D8062FD54FF0000845
:10A0C0000122C5F810812669D5F8103163681F6830
:10A0D000F36883F8CE20F068803003F0C8FCF268A3
:10A0E000D7F83C1592F8C93082F8C980F268106E32
:10A0F0001B1A0B44106F23EAE371084443451067B1
:10A1000002DD204603F011F8F16891F8CA3003F03F
:10A11000FF02002B40F0CB8081F8CE20D5F84C31E7
:10A1200083B3D5F810616EBB1422C5F84C6131467B
:10A1300003A8D5F84C31276903F025FD032303A9B3
:10A1400020468DF80C3002F0E9FFFB685A6F511C75
:10A1500018D0DA67FF688F49B86F8E4620EAE07C36
:10A1600031464FF40040CCFB00E1002370468A4AA0
:10A17000FDF7F0FF02460B46CDE9000107F1800034
:10A1800002F0CAF9D5F8443163B3D5F810614EBB7B
:10A19000C5F8446127692046F968D5F8443158313B
:10A1A000D4F8048002F0DAFFF9682046643102F046
:10A1B000D5FFFB6883F8CA60FB6893F8CB2032B107
:10A1C00083F8CB6032463146606803F07AF8D8F8FD
:10A1D0000430D80603D50221204603F0A7F8204614
:10A1E00002F0D4FFD5F82031DBB1D5F80433D9051E
:10A1F00017D563681B684FF02001EFF3118281F3DC
:10A200001288BFF36F8FD3F8201131B10021C3F84A
:10A210002011D3F820110121D96082F31188BFF3F6
:10A220006F8FD5F85831002B3FF415AFD5F80433B4
:10A230005A027FF510AF63682569D3E90073DB0626
:10A2400066D4EB689B68002B3FF405AF4FF020030A
:10A25000EFF3118283F31288BFF36F8FEB68D3F8AB
:10A26000BC100029ACBFD3F8BC60D7F84C6582F3B2
:10A270001188BFF36F8FEB6893F8CD20002A54D07C
:10A280004FF02003EFF3118683F31288BFF36F8F33
:10A290002946204603F084F886F31188BFF36F8FB8
:10A2A000D9E60126F9E60226F7E60426F5E6204679
:10A2B000583102F053FF4FF02003EFF3118183F385
:10A2C0001288BFF36F8FF3685A6EF2B19A65F36824
:10A2D0009A6EDA650023F2685366F2689366F26854
:10A2E0001366D7F84C310BB901233B60D7F8003225
:10A2F00023F02003C7F8003281F31188BFF36F8F7A
:10A300000022F36883F8CE2008E701237B60F3E79F
:10A310004FF480030121C7F80833204603F006F804
:10A32000EB68DB68002B8CD195E699681A6991423D
:10A330000CD05969DA69B142324428D12846DA6131
:10A3400002F0A7FF00289BD1EB68DE69E8682030A7
:10A3500003F08DFB1422002103A803F014FCEB682A
:10A3600020469A6803A9CDE90426DB689E421CBFFB
:10A3700001238DF80C304FF48003C7F80833002315
:10A38000EA689360EA68D36002F0C8FE63E61646A6
:10A39000DCE700BF3F420F0040420F000123834033
:10A3A00070B5DC430B4AD2E8EF1F01EA0405C2E8AE
:10A3B000E65F002EF7D14FF4803282400648C0F8A5
:10A3C0000823BFF35F8FBFF36F8F0B4214BF0120D1
:10A3D000002070BD008500200050014070B40E497F
:10A3E00022F07F46D1E90034D01AC31844F10004AA
:10A3F000C1E90034A6F50013B3F5400F09D2074BAD
:10A400001B681A0A1B069C19054B42F10005C3E99B
:10A41000004570BC01F08ABFC08200200485002086
:10A42000C8820020D9B101230D4A8340D2E8EFCF82
:10A430004CEA030CC2E8E1CF0029F7D14FF4803396
:10A44000084A8340C2F80433074BD3E8AF3FC34008
:10A45000DB0742BF4FF40012044BC3F800217047E2
:10A460000085002000500140FC84002000E100E055
:10A470000D4B1868010A0006BFF35F8F0B4BD3F832
:10A480000435181841F10001B3F5801F0AD2084BBA
:10A49000D3E90023904271EB030303D210F18070E3
:10A4A00041F10001704700BF0485002000500140C9
:10A4B000C88200202DE9F04F85B016461F4604469D
:10A4C0009DF840A0FFF76AFF0190FFF7D1FFB0426F
:10A4D00071EB070352D23B4B301A67EB01019842F4
:10A4E00071F100014DD2384B03EB0413D3E9022381
:10A4F0009F4208BF964258D04FF48038334908FA3B
:10A5000004F8204626F07F4BC1F8488303F05CF83E
:10A510004FF00309584604F15005AD00ADB205F106
:10A52000804504F5A87305F5A8350293029A20F03A
:10A530007F4341F82230C1F84483D1F80435244ADE
:10A54000C01A033820F07F4090422ED9286868B1A5
:10A55000D1F80435A3EB0B0020F07F40B0F5000FDD
:10A56000039322D9204603F02FF8039BBAF1000F82
:10A5700007D109EB030009F10109D7E7BAF1000F90
:10A5800009D06FF0150520460199FFF74BFF2846CB
:10A5900005B0BDE8F08F01230E4AA340D2E8EF0FCB
:10A5A0001843C2E8E10F0029F8D107490E982301AA
:10A5B000C8500F9B01EB04120025C2E902675360EB
:10A5C000E1E700BF01008000B082002000500140A0
:10A5D000FDFF7F00FC8400207FB500254FF0FF3099
:10A5E0004FF0FF31194C1A4B0226C4F80833C4F857
:10A5F0004833184BC4F80855C3E902014FF48033BF
:10A600004FF40012C4F80433134B0121C4F804635F
:10A610001520C3F880212A46FEF774FB1520FEF7AB
:10A6200055FB01230D4AA360236013600C4B0D4AB8
:10A63000009328460023CDE90155FFF73BFF304644
:10A64000FEF79CFF284604B070BD00BF00500140DB
:10A6500003000F00B082002000E100E00085002030
:10A66000DDA30000FFFF7F002DE9F7432E4BD3F859
:10A67000042390070BD5D3F8042142B10022C3F87C
:10A6800004212A4AD3F80431136801331360264A9F
:10A69000D2F80433D90327D5254BD3E8EF1F21F097
:10A6A0000100C3E8E40F002CF7D1CB0702D4D2F8A5
:10A6B0004031CBB100251C4CC4F84051D4F8403196
:10A6C000FFF7D6FE4FF02003EFF3118283F31288D9
:10A6D000BFF36F8F174BD3E90267B042B94106D27F
:10A6E00082F31188BFF36F8F03B0BDE8F0834FF0A2
:10A6F000FF38D3E900104FF0FF391D60C3E902892C
:10A700004FF48033C4F84833C4F84051D4F8403192
:10A7100082F31188BFF36F8F0029E5D00090324695
:10A720003B4628468847DFE700500140048500206B
:10A73000FC840020B082002030B5431C124C85B050
:10A7400005D08442A8BF0446012CB8BF0124FFF7FE
:10A750008FFE0E4B0C4DD3E90013401AB0F5000FDD
:10A760000FD22218AA4228BF2A46002052180849B0
:10A77000CDE90100009143F10003FFF79BFE05B016
:10A7800030BD2A46F1E700BFFFFF7F00C0820020F6
:10A79000DDA3000008B5FFF76BFE024B1B68C01A73
:10A7A00008BD00BFC08200200149024802F020BF5E
:10A7B00075A80000088500202C4A00F00800136FDF
:10A7C000072B2BD0132B1CD0052B3AD1526D12F432
:10A7D000805F14BF1723162312F4006F18BF1823CD
:10A7E00012F4007F1EBF224B9B6B192312F4806F63
:10A7F00018BF1A2312F4807F25D112F4005F18BF0E
:10A800001C23CA6968BBC2F3080020B96FEA522250
:10A810006FEA4222CA61184602F004BBD36DDA0720
:10A8200013D49A0713D45A0713D41A0713D4DA0689
:10A8300013D49A0613D413F0800F14BF2C232523AE
:10A84000DFE70023DDE71B23DBE72623D9E7272308
:10A85000D7E72823D5E72923D3E72A23D1E72B23DA
:10A86000CFE722F4FF7222F00102D3E7088500202F
:10A8700000ED00E000B5104B89B05A6AD86C009228
:10A880009A6A20F005000192DA6A694602921A6B10
:10A8900003925A6B04929A6B0592DA6B06921A6CC9
:10A8A0001B6D07929B0748BF40F00400FFF784FF31
:10A8B00009B05DF804FB00BF088500202DE9F041D8
:10A8C0001F46164B044693F800800D461646A2B06C
:10A8D000B8F1000F15D1684602F0B1FA3A46314698
:10A8E0002846289BA0470446684602F0A9FAB8F11A
:10A8F000000F02D00A4801F041F8204622B0BDE81E
:10A90000F0814FF0FF324FF0FF33054801F072F84D
:10A910000028E0D06FF08304EFE700BFCF85002070
:10A9200098820020002300B589B0CDE9063303AB3F
:10A930000493042303900593A9B10B6806934B6815
:10A9400007930223111E18BF01210848CDE90021F9
:10A9500040F2F53104AA00F00BF80028B8BF01203E
:10A9600009B05DF804FB0123ECE700BF05010040DE
:10A9700010B4B1F5004F029C0ED2042B0CD8042C5D
:10A980000AD8240444EA0364134644EA0102014657
:10A9900010BC0348FFF792BF6FF0800010BC7047F7
:10A9A000217C000030B50468ACB1B4FA84F3012214
:10A9B000C3F11F03DBB29A4024EA0202D0E8EF5F42
:10A9C000A54204D1C0E8EC2FBCF1000FF6D1EAD1CA
:10A9D00002480B7030BD0248FCE700BF0000AD0B21
:10A9E0000200AD0B10B50368CB40DB0710D4012388
:10A9F0008B40026843EA0201D0E8EF4F944204D151
:10AA0000C0E8EC1FBCF1000FF6D1F2D1014810BD37
:10AA10000148FCE70000AD0B0400AD0B014BC3F88F
:10AA2000040570470070014073B5032858D8DFE86B
:10AA300000F0021724310222504BC3F808230122F0
:10AA4000DA600022C3F80421D3F804310024012382
:10AA50008DF80730032843D8DFE800F02944607CF4
:10AA60000122464B0DF10704C3F808235A60002267
:10AA7000C3F80021D3F80031E9E74FF400723F4BEF
:10AA8000C3F8082301225A620022C3F82421D3F814
:10AA90002431DBE74FF48072384BC3F808230122DE
:10AAA000DA610022C3F82021D3F82031CEE742F248
:10AAB0001075324ED6F8183403F4803334B97BB1B4
:10AAC000012002F0C0FD013DF4D109E0D6F81824C0
:10AAD00002F0030222701BB19DF807000128F0D09C
:10AAE00002B070BD42F21075244ED6F80C3403F457
:10AAF00080333CB9002BF3D0012002F0A4FD013DCE
:10AB0000F3D1EDE7D6F80C2402F001022270002BFD
:10AB1000E6D09DF807000128EFD0E1E742F210757A
:10AB2000164ED6F85C3403F480333CB9002BD7D0F2
:10AB3000012002F088FD013DF3D1D1E7D6F85C2475
:10AB400002F001022270002BCAD09DF807000128F4
:10AB5000EFD0C5E742F21075084ED6F85434DB0347
:10AB6000BED52CB9012002F06EFD013DF5D1B7E74D
:10AB70009DF807000128F6D0B2E700BF0050004062
:10AB8000044B1A7922B9012218601A7102487047E1
:10AB9000024870477C8500200000AD0B0C00AD0B17
:10ABA00008B5094B1B6833B10520FEF79DF810B9B5
:10ABB0000520FEF78BF80122044BC3F81825C3F8D3
:10ABC0001425C3F8802508BD7C8500200050004076
:10ABD00010B5032846D8DFE800F01B0256500022CB
:10ABE0004FF480730121002003F1804303F5A0435B
:10ABF00018601C68012402F1804202F5A042146032
:10AC0000274A1268002A44D0264BC3F8041329E0CF
:10AC1000244BD3F81814D3F81824C90311D502F023
:10AC20000303022B05D0012B02D00020FFF7FCFE0E
:10AC300001231C4A0221C2F8183508224FF48273FE
:10AC4000D1E7D3F81424D207F2D5D3F81C2402F0AC
:10AC50000302013A012AE8D8114A12681AB1022205
:10AC6000C3F8042310BDD3F80421002AFBD000222E
:10AC7000C3F80421D3F80431F4E718224FF4907399
:10AC80004FF48071AFE720224FF492734FF40071BC
:10AC9000A9E71A68002AFCD018601B68E2E700BF29
:10ACA0007C8500200050004010B5284BD3F80021CF
:10ACB00052B10020C3F80001D3F800210122C3F8EB
:10ACC0000823234B1B689847204BD3F8042182B1FB
:10ACD0000022C3F80421D3F80421D3F81824D3F8B0
:10ACE0001824022102F00302012A26D1C3F8181504
:10ACF0009A60164BD3F8202162B10022C3F82021BC
:10AD0000D3F820214FF48072C3F80823104B05209C
:10AD10001B6898470D4BD3F82421AAB10022C3F831
:10AD20002421D3F824214FF40072C3F80823084BE0
:10AD30000620BDE810401B681847C3F80813044BF1
:10AD400001201B689847D4E710BD00BF00500040A9
:10AD50007C85002001460148FFF724BE0C810020BD
:10AD6000036803F01F025B09026004D0012B034853
:10AD700018BF002070470248704700BF0028844079
:10AD800000258440034A4309D35C00F01F001844A7
:10AD9000C0B2704760E0000070B505460846FFF796
:10ADA000F1FF42212A79174B01FB0202083233F8E6
:10ADB0001200C10525D584240026C0F3432120F4C8
:10ADC000F85023F812002A7904FB02340E3434F8C8
:10ADD000020F10F4807F03D0C0F34320814210D0D3
:10ADE0000136302EF3D184200024424302EBC1020D
:10ADF0009C502A79BDE8704000FB02307830FFF7A4
:10AE0000F1BD70BD10810020034611F0010010B5A6
:10AE1000CCB20BD1A207C4F340000DD5074A106A8B
:10AE200058601062003818BF012005E004490A6A22
:10AE30001A600A62002AEDD010BD00BF00288440CD
:10AE40000025844010B504460846FFF79BFF4223C7
:10AE500003FB0400024B083033F81000400B10BD18
:10AE60001081002010B504460846FFF78BFF4223EF
:10AE700003FB0400034B083033F81000C0F340001C
:10AE800010BD00BF1081002010B504460846FFF732
:10AE900079FF422303FB0400034B083033F8100012
:10AEA000C0F3401010BD00BF10810020F0B5054672
:10AEB00000200126044607468C420BD1114BD3F8E3
:10AEC0007C2132B10022C3F87C21D3F87C3140F0E0
:10AED0000040F0BDE3B29B0003F580729B0806FAC8
:10AEE00003F31D420BD002F1804202F53C32D2F84E
:10AEF00000C0BCF1000F02D0176012681843013483
:10AF0000DAE700BF00F002402DE9F04F0546644B40
:10AF1000296FD3F8040387B0C0B240F00040FFF7B8
:10AF2000C5FF061E2CDA0023E96F04A8CDE904331F
:10AF3000FFF76AFFDFF86CA1DFF86CB10DF11009C3
:10AF40001AF8013B05EBD30292F87C2003F00703CB
:10AF500022FA03F3DA0769D4544B09F10409534583
:10AF60000BF1010BECD1296F4FF00040FFF79EFF72
:10AF7000E96F04A8FFF748FF0028DBD126F0004660
:10AF80000124002E73D107B0BDE8F08F91FAA1F132
:10AF9000B1FA81F19BF8004041EA44142046FFF7E2
:10AFA000F1FE083035F81080C8084FEA9803019385
:10AFB000012319F8002001F0070103FA01F122EA48
:10AFC000010209F8002003A80394FFF7C9FE039AC1
:10AFD000019B803250F82220C8F382075B07B846F5
:10AFE000C2F3014227D52846D7B22146424602F095
:10AFF00099FB03A80394FFF7B3FE039B803350F83B
:10B000002330C3F301439F4207D10021204602F0C1
:10B010007AFB3946204602F076FB03A80394FFF73B
:10B020009FFE0122039B02FA03F30362D9F800108A
:10B030000029ABD190E7022A0DD10321204602F06E
:10B0400062FB07F00503012BE7D142462146284663
:10B0500002F068FBE1E702212046019202F053FB77
:10B06000032FF2D0019A032AD7D1022FECE796FAE8
:10B07000A6F3B3FA83F304FA03F29B0003F18043CF
:10B0800003F53C33D3F8101526EA0206D3F8102551
:10B090002846C2F30142C1F3052102F043FB70E7E9
:10B0A00000F0024070E0000070E0000072E000007C
:10B0B0002DE9F74305460846FFF764FE42222B7947
:10B0C000204F02FB0303083337F813300E46DB072B
:10B0D000044635D5284602F044FB95F804903146E5
:10B0E0004846FFF7D1FE60B14846FFF7ABFE0022AD
:10B0F000D5F8008000B208EB8003C3F81025C3F830
:10B10000102528463146FFF747FE42222B7901A839
:10B1100002FB03440023083427F814300196FFF79C
:10B120001FFE019B00EB8300D0F80022064B13406A
:10B1300043F00203C0F80032044803B0BDE8F083D6
:10B140000348FAE710810020F0F0FCFF0000AD0B8F
:10B150000400AD0B2DE9FF47174604460846FFF7EC
:10B1600011FE3E688846054676B394F8049048463A
:10B17000FFF778FE18B14846FFF786FEA0BB002314
:10B180004046CDE900338DF80E308DF80F300DF1CB
:10B190000F0233460DF10E0102F06CFA42202379C2
:10B1A000644A00FB0353083332F8131021F0020104
:10B1B00022F81310237900FB0353083332F81310DD
:10B1C00041F0010122F813107B68002B45D026794D
:10B1D0004146304693F80090D3F804A0FFF742FEB2
:10B1E00020B1BAF1000F22D0534839E04FF0420CA1
:10B1F0000CFB06564F49083631F8163023F46043ED
:10B2000023F0200321F81630BAF1000F0FD0B9F166
:10B21000030FE9D87B6826685B68187806EB800620
:10B22000B9F1000F1FD1C6F81095C6F8109542204D
:10B230002379404A00FB0353083332F8131021F0FE
:10B240001C0122F81310237900FB0353083332F852
:10B25000131041EA890122F81310BB6863BB374819
:10B2600004B0BDE8F087D6F8102522F00302C6F836
:10B270001025226802EB8003D3F8102522F44F3208
:10B2800022F44072C3F810254FEA0822D3F8106563
:10B2900002F47C5242EA09423243C3F81025237972
:10B2A0000CFB0353083331F8132042EA403242F0DA
:10B2B000200221F81320BAE74146D3E9009720463F
:10B2C000FFF76AFDB9F1000FC9D084232079194E28
:10B2D0004343F218F358994504D153689F4201D172
:10B2E00000210CE0842303FB00600DF10F01783096
:10B2F000FFF758FB114B9842B2D19DF80F108422F2
:10B300002379534303EBC10346F803902379534356
:10B31000422203EBC10333445F60237902FB0353F2
:10B32000083336F8132042EA412242F4807226F8AC
:10B33000132094E7108100200400AD0B0000AD0B3A
:10B340002DE9FF470646084690461F46FFF71AFDBF
:10B350000C460546B8F1000F33D096F804904846E5
:10B36000FFF780FD18B94846FFF78EFD80BB4223EA
:10B3700003FB0959DFF8F4A009F108093AF819307C
:10B3800013F01C0F03D098F80130012B20D00123BB
:10B390008DF80F30002308F10102CDE9008320462B
:10B3A00008F102030DF10F0102F064F94222337932
:10B3B00002FB035308333AF8132042F003022AF841
:10B3C0001320002F50D021463079FFF74BFD18B9DC
:10B3D000274804B0BDE8F08700214FF0420E3878CE
:10B3E0003368820003EB8003C3F81015C3F810150F
:10B3F00033791E490EFB0353083331F813C02CF484
:10B40000604C2CF0200C21F813C097F801C0BCF15F
:10B41000000F29D03368BF781A44D2F810354FEAAC
:10B420000C4C23F4991323F4F853C2F8103523027B
:10B4300003F47C530CF4403C3F05D2F8108543EAFA
:10B440000C0307F480173B4343EA0803C2F81035A6
:10B4500033790EFB0355083531F8153043EA403394
:10B4600043F0200321F815300248B2E71081002094
:10B470000400AD0B0000AD0B30B584250479044BFE
:10B4800005FB0434A160017905FB0133DA6030BDAE
:10B490001081002070B5067914463046FFF7F4FCA1
:10B4A00068B10846FFF76EFC422303FB0600054B1C
:10B4B000083033F8103004485B0B237070BD03482C
:10B4C000FCE700BF108100200000AD0B0400AD0BB5
:10B4D0002DE9F0410646077984201A4D00FB0758F4
:10B4E00098F8804064BB404621466022103002F04C
:10B4F0004AFB21463668D8F87000884216D10023EE
:10B5000046F30730C6F87C31D6F87C31FDF7DEFB18
:10B510004FF00043C6F80433842303FB075501238F
:10B52000094885F88030AB67BDE8F081CBB29B005D
:10B5300003F580727C2B04BFB450B3580131DCE7B3
:10B540000248F1E7108100200000AD0B0C00AD0BAC
:10B5500084210279044B01FB023393F88000003808
:10B5600018BF0120704700BF10810020842374227F
:10B57000007913FB002302481844FFF733BA00BFD9
:10B580001081002084237422007913FB00230248D9
:10B590001844FFF707BA00BF108100202DE9F341DE
:10B5A0000679044630460D461746FFF76DFC08B392
:10B5B0003046FFF757FC8046E0B93046FFF742FCC3
:10B5C00005B22168AD0005F5807241F802808A5805
:10B5D00021682944D1F8102542F00102C1F8102554
:10B5E0002FB10122216802FA00F3C1F8043302B03E
:10B5F000BDE8F0812846FFF7C5FB422303FB0600A8
:10B600000E4B083033F81030C3F38203042B11D0F3
:10B61000052B11D001A80195FFF7A2FB019B016941
:10B62000D94001F001010231284602B0BDE8F041E5
:10B6300002F069B80321F7E70221F5E71081002045
:10B640000148FFF761BC00BF9481002038B54FF07E
:10B650002003EFF3118583F31288BFF36F8F064B3E
:10B660009C6801F0C1FF85F31188BFF36F8F2046FE
:10B67000BDE83840FDF7B4BA88850020104B70B59E
:10B6800053F82040013053F82060A64200D870BD26
:10B69000D4E9003595B153B12846984738B1002810
:10B6A000B8BF4042FF28A8BFFF20EB681870EA68C7
:10B6B000537843F0010353700834E6E79847FBE7FB
:10B6C000D0DF0000012208B5094B03201A70FFF7F4
:10B6D000D5FF00F05BFF0420FFF7D0FF00F002F978
:10B6E000FCF7CCFE034A137B23F00103137308BD60
:10B6F000CF8500205083002008B50348034A00216D
:10B70000121A02F067F808BDB0820020D48500202C
:10B710000023012270B586B0CDE904230F220193E6
:10B72000CDE9023214234FF4A0720446114D124E9B
:10B7300003FB0055114906EBC01602FB0011104B2C
:10B740003046009500F090F8737B2C7423F00403CE
:10B7500073730C4B013403EBC4236B600A4BEE6034
:10B76000D3E8EF1F0131C3E8E21F002AF8D106B089
:10B7700070BD00BF88850020D0820020D88D0020B9
:10B78000E9D70000D88500208485002080B50020FE
:10B79000A6B0FFF773FF2D4B03F5006282F3088814
:10B7A00083F30A880024E023294D2A4E85F82230AD
:10B7B000EC772C766C76AC7685F820406B6A264F59
:10B7C00043F4E0236B6285F82340FDF779F9FDF738
:10B7D00003FB4FF0FF33AB62EB62FDF7B1FCFDF70B
:10B7E00057FB40F20113ADF8243006ABB360CDE94E
:10B7F0001E44219401F0E2FF0120FFF73FFF0220E9
:10B80000164DFFF73BFF00F011FC154B75610593DA
:10B81000012314494FF48062CDE9034328463B4697
:10B82000CDE90144009400F01FF806466A7B2846E3
:10B8300022F004026A7302F025F82046FFF768FF41
:10B840003A4631462846FDF7ADFA00BFD8850020BC
:10B8500000ED00E088850020C5B600005083002080
:10B8600072E00000188F00202DE9F043984685B063
:10B8700000F15803C0E91633109B0026037304231C
:10B88000073222F0070543730F9B01EB05090F46B2
:10B8900083734946C0E906668660C6730446FCF7B2
:10B8A0009BFF0E9B073020F00700A066C4E91875C7
:10B8B00002930D9BA9EB000901930C9B4A46009350
:10B8C000394643462046FDF74FFA054B66659B68AF
:10B8D00003B1DB6E4846E36605B0BDE8F08300BF08
:10B8E0008885002070B5224C224D86B02646AE4297
:10B8F00004F130040AD300F069FB1D4C1E4EAC422B
:10B9000020D306B0BDE8704000F074BB54F80C3C86
:10B91000059354F8103C049354F8143C039354F8E2
:10B92000183C029354F81C3C019354F8203C0093BB
:10B9300054E90A2354E90C01FFF796FF54F8303C10
:10B940005E65D3E7D4E90A23B3F1FF3F08BFB2F144
:10B95000FF3F05D052EA0301206803D100F018FB35
:10B960003034CCE73146183000F06AFCF8E700BF0D
:10B970007CDE00007CDE000043D9000038B583681F
:10B9800004466BB3194A926893422CD1C368012BC9
:10B9900003D9013BC360002038BD4FF02003EFF313
:10B9A000118583F31288BFF36F8F0169806801F0FE
:10B9B00027FF204601F0E0FFA06058B190F90E206B
:10B9C00022610022826701F05DFF2946084800F0ED
:10B9D000CDFAE0E7E06085F31188BFF36F8FDAE717
:10B9E0006FF01500D8E74FF0FF30D5E788850020CD
:10B9F000D08500202DE9F341044617461E464FF03E
:10BA00002003EFF3118883F31288BFF36F8FC368AD
:10BA1000334A7BB180689168884219D057EA06039F
:10BA200018D188F31188BFF36F8F6FF00F0002B049
:10BA3000BDE8F081916891F90E100133E3609368DD
:10BA40002161A36088F31188BFF36F8F0020EEE7B8
:10BA50002169F2E791F90E1090F90E306FF07E0235
:10BA60009942A8BF19469142B8BF11468B422EDDBC
:10BA700001F0C6FE054622464146CDE9007619484A
:10BA800000F010FA0028E1D04FF02003EFF3118608
:10BA900083F31288BFF36F8FA068D0B12368216948
:10BAA0009C420AD04BB193F90E309942A8BF194677
:10BAB0006FF07E039942B8BF194601F0A1FE40B174
:10BAC0003146084800F052FA6FF00A00AFE700254F
:10BAD000D1E7002DF4D186F31188BFF36F8FF3E720
:10BAE00088850020D085002038B504464FF020031B
:10BAF000EFF3118583F31288BFF36F8F01F03CFFE2
:10BB000048B10022826701F0BDFE2946BDE83840F9
:10BB1000064800F02BBAD4E902329A4218BF01332A
:10BB2000A36085F31188BFF36F8F38BDD0850020E7
:10BB300013B54FF02004EFF3118184F31288BFF3A3
:10BB40006F8F846844B1013C846081F31188BFF336
:10BB50006F8F002002B010BD52EA030406D181F3BA
:10BB60001188BFF36F8F6FF00F00F3E7CDE900236B
:10BB70000246024800F096F9ECE700BFD0850020AD
:10BB8000C3897F2B12D80A4B1B6863B1094B90F90C
:10BB90000E201B689A4209DB437BDB0606D1064B6D
:10BBA000C31A18BF012303F0010070470023FAE70E
:10BBB000B0850020AC850020D08200200122044BFB
:10BBC000C01A044BC0105843034B1A54704700BFAF
:10BBD000D0830020ABAAAAAAD085002070B50E4B56
:10BBE0000E4C1E7C054606EB460304EBC3042046C0
:10BBF00001F015FF00220A4B28469A55FFF7C0FFB7
:10BC000048B1084B2046BDE870401A680649013A21
:10BC1000D31700F015BB70BD88850020D0830020AD
:10BC2000D0850020B0850020BDBB000038B50D4D8B
:10BC30002B4653F8184F9C4200D004B9EC68AB680F
:10BC400038B95A7BD20604D1A26912B9DA897F2A9F
:10BC500005D89C4202D02046FFF7C0FF23466B6107
:10BC600038BD00BF8885002070B590F90D200146D1
:10BC7000002A437B04DA03F07F03437301F0C8FD1D
:10BC8000154A4B7B104663F07F034B7350F8183F07
:10BC9000D469834208BF002323B9C1E900042160AD
:10BCA000D1610CE091F90E5093F90E60B5420ED0BF
:10BCB000AE420CDD5868C1E90030016059609068FF
:10BCC000BDE87040431A58425841FFF7AFBF9C424D
:10BCD000E3D01B68E0E700BF8885002070B490F9CE
:10BCE0000D30427B002B29DBD30627D183692BBB88
:10BCF000134962F07F0242730A4652F8184F944289
:10BD000018BF2346CC6923B9C0E900242060C8616C
:10BD10000CE090F90E5093F90E60B5420AD0AE4295
:10BD200008DD5A68C0E9003210605860002070BC1D
:10BD3000FFF77CBFA342E7D01B68E4E770BC704705
:10BD40008885002008B590F90D200146002A437B24
:10BD500004DA03F07F03437301F05AFD044B986843
:10BD6000431A58425841BDE80840FFF75FBF00BF83
:10BD70008885002070B515461C46064601F05AFD20
:10BD8000B4F1FF3F08BFB5F1FF3F08D02A46234674
:10BD900006F118000249BDE8704000F051BA70BDCC
:10BDA00043D90000002A2DE9F0410E460CBF1021B6
:10BDB0000821437B044619420AD10B43DD0903F0F5
:10BDC0009F0211D14273082914D00120FFF72EFFE2
:10BDD0001B4B9B68A3422CD1EFF305834BBB304632
:10BDE000BDE8F041FCF712BF03F01F03437301F0FD
:10BDF0000FFDE8E7A36813B1204601F011FD04F13F
:10BE0000180001F00CFE4FF0000804F15807A56D72
:10BE1000BD42DAD0002DD8D0284601F001FD05F151
:10BE2000180001F0FCFD2846C5F87880FFF756FFA2
:10BE3000EDE786F31188BFF36F8FBDE8F08100BF97
:10BE40008885002038B54FF02003EFF3118583F388
:10BE50001288BFF36F8F104B104A9C681068A04285
:10BE600006D1FFF7BBFE85F31188BFF36F8F38BD96
:10BE700000211B7C11600A4AD35C002BF3D02046C2
:10BE8000FFF77EFE0028EED0637BDB0602D1204662
:10BE9000FFF7EAFE2046E4E788850020A885002019
:10BEA000D085002070B50C480C4D86680C462E607D
:10BEB0001146DDE904234FF02006EFF3118586F3E8
:10BEC0001288BFF36F8F8068FFF754FF2046BDE8EC
:10BED0007040FCF79BBE00BF88850020A88500202D
:10BEE000F8B504464FF02003EFF3118683F3128870
:10BEF000BFF36F8F437B49B2DA0619D18569BDB9AB
:10BF000003F07F03437301F083FC437B164A63F025
:10BF10007F0343731346817353F8180F984218BF79
:10BF20000546D0695DB9C4E900300460D46111E010
:10BF30000020A17386F31188BFF36F8FF8BD95F9C8
:10BF40000E70B9420BD08F4209DD6B68C4E9005313
:10BF50001C606C600120FFF769FE0120EAE7A8423F
:10BF6000E1D02D68DEE700BF8885002049B9EFF3F6
:10BF7000058030B9054B5A699B689A4201D0FCF79D
:10BF800045BE81F31188BFF36F8F7047888500200D
:10BF900010B54FF02002EFF3118482F31288BFF343
:10BFA0006F8F427B510704D484F31188BFF36F8FE6
:10BFB00010BD22F004024273FFF790FE2146BDE857
:10BFC00010400148FFF7D2BFD18500204FF0200379
:10BFD000EFF3118183F31288BFF36F8F044B9A68DC
:10BFE000D37B013BD37381F31188BFF36F8F70470D
:10BFF0008885002010B54FF02003EFF3118483F300
:10C000001288BFF36F8F084B00209A68D37B0133EF
:10C01000D373FFF70BFE84F31188BFF36F8FBDE876
:10C02000104001F0D1BC00BF88850020024B03F115
:10C030001802C3E90622704788850020F8B54FF042
:10C040002003EFF3118583F31288BFF36F8F194933
:10C050008868437B03F07F03437301F0D9FB0846F4
:10C060008B685A7B62F07F025A7350F8182FCC69A4
:10C07000824208BF002222B9C3E900042360CB61D9
:10C080000CE093F90E6092F90E70BE420ED0B742EA
:10C090000CDD5168C3E900210B6053600120FFF7FC
:10C0A000C5FD2846BDE8F840FCF7B0BDA242E3D08C
:10C0B0001268E0E78885002050EA01032DE9F0418D
:10C0C00005460E4603D1FFF7B9FF00202CE0831C84
:10C0D00071F1FF332ADB01F0B8FC2C184FF020037C
:10C0E000EFF3118883F31288BFF36F8F114F124B58
:10C0F000B8681860FFF726FEB86810492A4633462C
:10C10000183000F09DF8BA684046537B43F01003A6
:10C110005373FCF77BFD01F098FC201A63EB0303DB
:10C12000012873F10003D0DBBDE8F0816FF001045A
:10C13000241AD3E788850020A885002043D9000071
:10C14000B1F1FF3F08BFB0F1FF3F08B506D1084B82
:10C15000986801F0A7FB4FF0FF3008BDFFF7ACFF78
:10C160004FF47A7380FB0303C00B40EA4340F4E7CB
:10C1700088850020014B9868704700BF88850020A3
:10C1800008B50648064A0749121A01F025FBBDE822
:10C190000840054A0549064801F01EBB0080002002
:10C1A000AC820020B8E0000000000000B8E0000011
:10C1B00000800020034B1B680BB9FEF7EBBA002090
:10C1C000704700BFB485002010B50E4B1C689C4220
:10C1D00004D1FFF7EFFF6FF0004010BDFFF7EAFF5B
:10C1E000002CF8D0D4E904321B1A62EBE072B3F1F0
:10C1F000004F72F10001EEDA002AACBF18460020B1
:10C20000EBE700BF1882002030B570B10B4B5B68C4
:10C2100098420AD0036843B1D3E90421D0E9044528
:10C22000121941EB0501C3E90421D0E90032136082
:10C230005A600023C0E9003330BD00BF18820020DF
:10C24000B3F1FF3F08BFB2F1FF3FF8B504461D460A
:10C2500016465CD081604FF02003EFF3118783F323
:10C260001288BFF36F8F013275F1FF3324DA6FF05C
:10C2700001032C49D1E900209B1A4FF0FF3262EBF9
:10C2800000009E1B60EB0500012E70F1000301DA37
:10C2900001260020C4E90460234ED6F800C075686A
:10C2A000B44508BF4FF0000CBCF1000F0DD1C4E93C
:10C2B00000652C6074601CE0FFF77CFF013645F1DF
:10C2C0000005361845EBE070E4E7DCE90420D4E92A
:10C2D0000431934271EB000E1ADAD21ADCF8043002
:10C2E00060EB0100CCE90420C4E900C31C60CCF879
:10C2F00004403368B34206D09C4204D1FFF764FF88
:10C300000021FEF719FA87F31188BFF36F8FF8BD8C
:10C310009B1A61EB0001AC45C4E90431C7D0DCF8DD
:10C3200000C0C1E7E8830020188200202DE9F84F03
:10C330004FF02003EFF3118C83F31288BFF36F8F5C
:10C34000DFF8B0A0DFF8B0900024C9F80000DAF8F8
:10C3500000000025504508BF0020284FE046D7E9DF
:10C360000021D9F8003080B3D0E9046C4FEAE37EB5
:10C37000B3427EEB0C0B05DAF61A6CEB0E04C0E947
:10C38000046422E0B21841EBE671C0E90445C7E954
:10C390000021FFF739FF88F31188BFF36F8F83689F
:10C3A00098474FF02003EFF3118883F31288BFF30F
:10C3B0006F8FD9F80030DAF800009B1B5045C44657
:10C3C000C9F80030CAD1D7E9002100249A1841EBFE
:10C3D000E373C7E90023C9F80040FFF7F5FE2146E3
:10C3E000FEF7AAF988F31188BFF36F8FBDE8F84F05
:10C3F000FFF728BD18820020B4850020E8830020C4
:10C4000010B54FF02003EFF3118483F31288BFF3CC
:10C410006F8FFFF7CFFE0346054AD2E900011818D7
:10C4200041EBE37184F31188BFF36F8F10BD00BF40
:10C43000E8830020F8B504464FF02003EFF311879E
:10C4400083F31288BFF36F8F026822B187F31188DC
:10C45000BFF36F8FF8BDD0E90A36581C46F10001D2
:10C46000022871F1000127D3012B76F10001BCBF36
:10C47000012316465D1E46F1FF3601F0EAFA01304F
:10C4800041F10001401946EB0101012871F1000161
:10C490003ADB01F0DEFA013041F100016FF00102F8
:10C4A000401946EB01034FF0FF31121A61EB030311
:10C4B00020461849FFF7C4FE236B01332363236A28
:10C4C00073B187F31188BFF36F8F2046236A9847B3
:10C4D0004FF02003EFF3118783F31288BFF36F8FC0
:10C4E00054F8185FA542B1D0002DAFD0284601F016
:10C4F000F4F90023AB6787F31188BFF36F8F2846E9
:10C50000BDE8F84001F0BEB96FF001024FF0FF3313
:10C51000CEE700BF35C400002DE9F04105461C46BA
:10C5200090461F464FF02003EFF3118683F31288E5
:10C53000BFF36F8FB4F1FF3F08BFB2F1FF3F05D1EA
:10C5400086F31188BFF36F8FBDE8F081531C74F13F
:10C55000FF3309DB012A74F10003BCBF0122002470
:10C5600012F1FF3844F1FF37284601F058FADDE9AF
:10C5700006010023C5E90A012B6342463B462846D3
:10C580000149FFF75DFEDBE735C40000014800F01C
:10C5900082BA00BF77E000002DE9F04F43688DB00C
:10C5A00015468046029383789A0740F10D81002456
:10C5B0000E78002E00F00A81252E0BD04B1C039321
:10C5C000013441463046029B98470028C0F2F6806D
:10C5D0000399EDE74E788B1C252E0393F0D00027AE
:10C5E000B946BB46BBF11F0F38D8A6F12003102B6C
:10C5F0000AD8DFE803F02A090930090909210909E5
:10C600000928092D09091F00A6F13003092B33D988
:10C610002A2E37D11BF0400F55F8043B40F08280A2
:10C62000002BA7BF4BF0200B9946C3F100094BF03C
:10C63000280B01E04BF0010B039B13F8016B0393F4
:10C64000002ECFD130E04BF0020B4BF0040BF3E7A0
:10C650004BF0080BF0E74BF0100BEDE7BBF17F0F51
:10C6600019D8A6F13003092BD2D81BF0400F03D004
:10C670000A2101FB0737DFE70A214BF0200B01FB02
:10C680000939D9E72E2E06D11BF0400F40F09E80CD
:10C690004BF0400BD0E76C2E31D02BD8682E36D023
:10C6A0006A2E3CD04C2E3AD0002F46F02003B8BF63
:10C6B0002BF04002A3F16501BCBF00271FFA82FBEB
:10C6C000022901D9612B2FD107350727DFF8ACA24A
:10C6D00025F0070508351BF0080F66D00AEB070B9D
:10C6E00056465E4563D1A4EB0A0AA9EB070906EB9F
:10C6F0000A026FE1742E9FD07A2E9DD0D4E71BF0F2
:10C70000800F18BF4BF4007B4BF0800B94E71BF4B9
:10C71000807F18BF4BF4007B4BF4807B8CE74BF49D
:10C72000207B89E71F4687E7A6F16301122900F203
:10C73000F080DFE811F013004F00EE00EE00EE0095
:10C74000EE004F00EE00EE00EE00EE00EE00FE0008
:10C75000E900EE00EE001B00EE00AF0055F8043BD0
:10C7600001270DF1180A8DF81830B4E755F804AB1D
:10C77000834BBAF1000F08BF9A461BF0400F50469A
:10C7800014BF39464FF0FF3101F08EF90746A2E79A
:10C7900041462020029B984700280FDB013EB7420C
:10C7A000F6D34C44B146A41B98E74E46F7E7414602
:10C7B00016F8010B029B9847002892DA98F802308D
:10C7C00043F0040388F802304FF0FF3420460DB0E8
:10C7D000BDE8F08F1BF0800F34D01BF4007F2CD00D
:10C7E000073525F00705AA4669685AF8080B2BF0AB
:10C7F00010050029ADB237DA404245F4806561EB9F
:10C8000041010DF1180B0A235A4601F059F9A0EB2A
:10C810000B0301936B0662D5019B25F001019F423A
:10C8200089B240F3A180002E00F0998015F010022B
:10C8300040F09C80BB460D4623E0AA465AF8040B04
:10C84000C117D4E7AA461BF4807F5AF8041B01D114
:10C850000846F5E71BF4007F19BF48B241F3C01149
:10C8600008B241F3C031C2E750EA0103C9D11BF05D
:10C87000400FC6D0002FC4D12BF01102BB46019748
:10C8800095B240F2064115EA01021CBF0BF1010B03
:10C8900000222CE02BF010020A231FFA82FB1BF06F
:10C8A000800C49D01BF4007115BF0735AA4625F04E
:10C8B00007055AF8040B1EBFAA4669685AF8080B08
:10C8C00050EA010545D12BF016051BF0400FADB223
:10C8D00042D0002F40D12BF01702019795B215F0EE
:10C8E000100248D0019B002E42D103F1010B290711
:10C8F0005AD4EB0706D5D9456FDDA9EB0B03019997
:10C90000CB465F185B4649E04BF0100B10237826AE
:10C91000C5E7782B04D1C6F1780343F01003BEE7D6
:10C9200041462520029B98470028FFF647AF023476
:10C9300047E608230026B2E7AA461BF480715AF89E
:10C94000040BBDD01BF400711ABFC0B2614680B2A7
:10C95000B6E72BF0060295B20DF1180B54E725F05F
:10C960001105BB46ADB28CE70D46B8E73B460D4618
:10C9700003F1020BBBE7DDF804B082E7AEE0000094
:10C98000A7E00000CDE9043241462020029B9847F1
:10C990000028FFF613AF049B059A01339945F1DC9B
:10C9A000A4EB0B019B46CC180AB341463020029BF6
:10C9B00098470028FFF602AF8EB901342744391B8F
:10C9C000019B994224DC1D4655BB019AA9EB0B093A
:10C9D000554622441446914433E0019F92E70234C5
:10C9E00041463046029B98470028E7DAE6E640F2E7
:10C9F00006410D42E2D015F0020F04F10104414658
:10CA000014BF2B20202015F4806F18BF2D20E9E7DC
:10CA100041463020029B013498470028CFDACDE60A
:10CA200006AB013D4146585D029B98470028CBDA92
:10CA3000C4E641462020029B013498470028FFF6B7
:10CA4000BDAEA9EB0403002BF3DCC1E57047034640
:10CA5000F0B419790068DB8801250669DA073468C3
:10CA600054BF43F4D01383F4B0138D4023F48012E9
:10CA7000DB0787684CBF2C43AC4334603B68F0BC99
:10CA80001847034601211B790068994083685B6958
:10CA90001847002070470FB407B504A951F8040BDC
:10CAA0000191FBF74FFD03B05DF804EB04B0704754
:10CAB000836800EBC101B3F5004F2CBF51F8220091
:10CAC00031F81200704700EBC1018068B0F5004FEB
:10CAD0002CBF41F8223021F812307047012208B5EE
:10CAE000FFF7E6FFD04008BD836800EBC101B3F556
:10CAF000004F08D34B681AB143F001034B607047F5
:10CB000023F00103FAE74B881AB143F001034B808D
:10CB1000704723F00103FAE753000122FFF7D3BF68
:10CB2000B0F5004F34BF04230823481C0833A0EBA2
:10CB3000D300B0FA80F0C0F11F0070472DE9F0413A
:10CB40000D4686680446FFF7C9FFB6F5004F01465B
:10CB500001D3012832D03046FFF7E2FF04EB800119
:10CB60000E6996B90122E36882401343E360022212
:10CB70000D612B4629462046FFF7A5FF03222946D3
:10CB80002046BDE8F041FFF79EBF02223146204615
:10CB9000FFF78EFF0746034629462046FFF793FF1F
:10CBA0000322334629462046FFF78DFF39462B46A0
:10CBB0002046FFF788FF02223146E1E7BDE8F08119
:10CBC000B2F5802F2CBF082304232DE9F041002665
:10CBD000D21A8C18CD1D25F0070524F00704641B1C
:10CBE000E408056021462046AC60EE60FFF798FF40
:10CBF000421D9200013002F107074FEAD707314684
:10CC0000A2F1100205F11000B8BF324600F0BBFFE0
:10CC10003A4631462846FFF77FFF334632463146D3
:10CC20002846FFF750FFA4EB0708284631460122AB
:10CC3000FFF75AFF42463946FFF76EFF3B46324642
:10CC400039462846FFF73FFF21462846FFF764FF95
:10CC50004346324621462846FFF735FF21462846FF
:10CC60000122FFF741FF3946BDE8F041FFF766BFFB
:10CC7000038B13F0070305D10368002B0CBF0020C2
:10CC800003207047022B05D1408BB0FA80F0400999
:10CC900080007047012B05D10368002B0CBF0020DA
:10CCA000052070470020704710B50C4600B111B93F
:10CCB0006FF0150010BD081D00F095F80028F9D19F
:10CCC000A368032BF6D9F3E72DE9F0410D4607469B
:10CCD0001946281D90461E4600F096F8044638B1C5
:10CCE0003346424629463846A446BDE8F0416047EF
:10CCF000BDE8F08110B44FF02004EFF3118284F30B
:10CD00001288BFF36F8F416110BC0121FBF74CBC4F
:10CD100038B50C46054658B151B10B6843B14B6864
:10CD200033B11C22002100F02EFF00202C6138BD01
:10CD30006FF01500FBE770B505460E46FFF7B4FF30
:10CD4000041E15DB4FF02003EFF3118283F31288EA
:10CD5000BFF36F8F4FF6FF716B8B2C8B8B4204F000
:10CD6000070407D182F31188BFF36F8F6FF00A04B5
:10CD7000204670BD022C0CD101336B8382F31188E5
:10CD8000BFF36F8F0023224631462846FFF79CFFF2
:10CD9000EEE7062C14D8DFE804F004131313041A8A
:10CDA0000400002333606B683BB9C5E90066ACB989
:10CDB00002212846FBF7F8FBDAE71E606E60F6E713
:10CDC00082F31188BFF36F8F6FF00404D0E782F312
:10CDD0001188BFF36F8F6FF08504C9E782F3118864
:10CDE000BFF36F8FC4E7034658B1426802F00302F5
:10CDF000012A03D0032A04D1026812B100209860EE
:10CE000070476FF0150070474268034602F0030256
:10CE1000032A4FF00002816014BF104600685A6078
:10CE200070477047FEF712BC01460068FEF70EBC63
:10CE300008B5FBF7CDFCBDE80840FBF7FBBC70472D
:10CE4000704700210120FFF7EDBF036E83F30B88CD
:10CE5000704740E800F313F4803FD8B208BF6FF08A
:10CE6000150070477FB50A894E890B684D6802F03E
:10CE70001F0242EA461200938DF8082023F01F0398
:10CE80006A1E134423F01F030728039304D869463E
:10CE9000FCF71AF804B070BD6FF01500FAE708B59A
:10CEA000FCF7CAF9002008BD4FF040230222C3F866
:10CEB000D02601220020C3F80427C3F80429C3F8B0
:10CEC000002B70470C220369C9B201FB0233986F33
:10CED00000F0070070474FF02003EFF3118283F357
:10CEE0001288BFF36F8F036803F0C00343F002039F
:10CEF000036082F31188BFF36F8F704770B5C9B2BA
:10CF000003694FF02004EFF3118584F31288BFF317
:10CF10006F8F0C2606FB0134A46F14F0C00408D0F8
:10CF2000A24206D085F31188BFF36F8F4FF0FF3018
:10CF300070BD012206FB01339A6785F31188BFF3A8
:10CF40006F8F436803EBC1035B6898470020EFE7EE
:10CF50008022FFF7D3BFF8B5069F0469C9B24FF02E
:10CF60002005EFF3118685F31288BFF36F8F0C2530
:10CF700005FB0144A56F05F0070CBCF1010F0CD1B6
:10CF8000A76786F31188BFF36F8FC4E91C2343683A
:10CF900053F8313098470020F8BD05F0C005AF4286
:10CFA00086F31188BFF36F8F0CBF6FF077004FF0DF
:10CFB000FF30F1E713B580240094FFF7CCFF02B0F7
:10CFC00010BD10B41C240069CBB203FB0400002187
:10CFD00010BC10470320FDF7FBBD0220FDF7F8BD94
:10CFE0000020FDF7F5BD032000F042BB022000F059
:10CFF0003FBB002000F03CBB1046FEF775BD436808
:10D0000000205B681B690B607047436802EA0100FF
:10D010005B6821EA020198600020D960704743688C
:10D0200000205B6899607047436800205B68D960A6
:10D03000704743685A68536821EA03000B409060C8
:10D040000020D360704710B503695868F8B1884272
:10D0500019D19C680868A142586000D198600020EE
:10D0600008602AB15A680A609A68596002B99960E2
:10D07000002010E0814206D1086820609868814253
:10D08000EDD19C60EBE7044600680028F2D1002A4D
:10D09000E8D16FF0150010BD30B543681360057A14
:10D0A000446804EBC504A34202D36FF0010030BD15
:10D0B0005C798C4201D00833F0E70020F7E7436841
:10D0C0001B68D3F88004C3F88004704710B5446827
:10D0D0002368C3F84415C3F848250022C3F820216B
:10D0E000D3F82011C3F85821D3F858216268D2062A
:10D0F00011D50269D2682AB1D2F8C01041F00101FD
:10D10000C2F8C010082142681268C2F800154FF436
:10D110008002C3F8042301229A6010BD0369DA6813
:10D1200013680BB152681847704770B586B006692E
:10D1300004460D461422002101A800F024FD02231C
:10D140008DF80430F36820469A6D1B6E01A9CDE975
:10D1500003350292FFF7E2FF06B070BD70B50E68AE
:10D1600005460C4686B07EB11422002101A800F0CD
:10D170000AFD042328460DEB03018DF804300296C6
:10D18000FFF7CCFF0023236006B070BD10B586B05A
:10D1900004461422002101A800F0F5FC05232046D6
:10D1A00001A98DF80430FFF7B9FF06B010BD70B5C6
:10D1B000436805691B684FF02000EFF3118680F388
:10D1C0001288BFF36F8FEC68A06D98B1606EA0B944
:10D1D0006166EC68A266C3F83415C3F83825D3F845
:10D1E000002242F02002C3F8002286F31188BFF328
:10D1F0006F8F70BD6FF00C00F7E76FF00F00F4E772
:10D200000369D86820B10160DB6800205A6070476C
:10D210006FF08500704710B502694368D0681B68DD
:10D2200060B9D3F8104164B1926912780A70C3F8FA
:10D230001001D3F8102101221A6010BD6FF0850093
:10D24000FBE74FF0FF30F8E738B5436805691C6825
:10D25000EB689A6DD2B15B6E53B1D4F8003223F013
:10D260002003C4F800320023C4F84C31D4F84C3108
:10D27000E868803000F0FBFB0020EB6883F8CA0010
:10D280000123EA6882F8CB30636038BD6FF00D008F
:10D29000FBE708B5C368DA68D969521A0FD0082AC3
:10D2A00028BF08225A61C36899691961C3689868E0
:10D2B000D9690144986900F059FC012008BD104665
:10D2C000FCE773B5066814460B46D6F83C55F1B139
:10D2D0000021184600F057FC03460146C6F83415F5
:10D2E00000210120C6F83845C6F81011D6F81021E3
:10D2F000F062D6F810010028FBD0C6F81011D6F85D
:10D300001021D6F83C052BB9C0B202B070BD05247F
:10D310006946E3E78542F7D11A19934201D100200B
:10D32000F3E713F8011B0029F7D0EDE770B50446C9
:10D3300002694FF02003EFF3118683F31288BFF3E5
:10D340006F8FD068D0F8C03023EA0103C0F8C03036
:10D35000D568D5F8C03073B9022907D105226068B5
:10D3600005F1C401FFF7ADFF85F8C900002263682D
:10D370001B68C3F8002586F31188BFF36F8F70BD5B
:10D3800002680346D2F8580140B95B689B0706D48F
:10D39000D2F82001003818BF0120704701207047E3
:10D3A00010B504464068FFF7EBFFCB6818B90122BF
:10D3B00083F8CD2010BD002283F8CD204FF0FF323E
:10D3C000CB682046C3F8BC20CB68BDE81040D3E949
:10D3D0000412FFF77BBE2DE9F047D0F804A01746F2
:10D3E0009AF80820054689460469DAF80080002A80
:10D3F00076D1E26892F8CA10002974D192F8CB0075
:10D4000000F0FF0100286ED10520536793FBF0F375
:10D41000E2689367E368C3F85890E368DF65E36800
:10D420001966E3685966E3689966DAF80430DA0643
:10D4300023D5E16891F8C960FEB1BE4228BF3E46DF
:10D4400048463246C43100F091FBBF1BB14414D1B1
:10D45000E268314692F8C93028469B1B82F8C930F1
:10D46000FFF763FEE16828465831FFF777FE28464C
:10D47000FFF78CFE0020BDE8F0870023C8F8349544
:10D48000C8F83875C8F81031D8F810210122C8F84A
:10D490004C31D8F84C31E36883F8CA20DAF804300C
:10D4A000DB0619D54FF02003EFF3118183F31288C7
:10D4B000BFF36F8F2B69DB682BB1D3F8C02042F02C
:10D4C0000202C3F8C02008226B681B68C3F800255D
:10D4D00081F31188BFF36F8F0123C8F80030C9E7CB
:10D4E0006FF08500C7E76FF00F00C4E7F8B5456B34
:10D4F000EB6893F8CE3003F0FF0703BB10222E68D1
:10D5000073681B68C3F80823EB68D3F8B820D96E9A
:10D5100091421FBFDA66EB685A6FDA67EB68D3E9AE
:10D520001B42A41A0CD5C3F8B820EB68D3E9171234
:10D530008A420AD8102273681B68C3F80423F8BD16
:10D54000D3E91712A018884206D98C1A002CF1DDF5
:10D550009B6DC3B1012708E0002CEBD0D3E91E126C
:10D560008A4215DA9B6D002BE4D021463046FFF746
:10D57000DCFDEA68136E23441366EA68136F2344E4
:10D580001367002FD6D0E868803000F070FAD1E73A
:10D59000521ADA67CEE738B5426803691568DA6867
:10D5A000916851B1002482F8CD40D868203000F055
:10D5B0005EFA01232046EB6038BD6FF00D00FBE7FB
:10D5C000436B1868FFF7E7BF002200F150039B0090
:10D5D0009BB203F1804303F5A8331A601B687047C0
:10D5E00008B5FCF745FF08BD002008B5FBF7AEFA0B
:10D5F00000B589B006AB02930823039301AB0493F3
:10D6000004230791CDE9053004AA032002A9FDF700
:10D6100089F90228019B09D003280AD060B9181E95
:10D6200018BF0120404209B05DF804FB6FF01500FF
:10D63000F9E76FF08500F6E74FF0FF30F3E70020E1
:10D6400070477047004700F0B5B840F00040C1F89F
:10D650008000704740F00040C1F88000704740F003
:10D660000040C1F88000C2F880007047FDF772BB2F
:10D67000FDF7DAB9F7B51646DDE90847019001A8CC
:10D680001D46FDF76DFB019BB6F1000C18BF4FF076
:10D69000010C00EB83000B1E18BF0123002D43EA91
:10D6A0004C0314BF4FF00C0C4FF0000C002C43EA5D
:10D6B0000C0314BF4FF4706C4FF0000C002F43EAC2
:10D6C0000C0314BF4FF4403C4FF0000CD0F8002284
:10D6D00043EA0C0322EA030301B109780EB136785C
:10D6E000760019430DB12D78AD0031430CB124788B
:10D6F000240229430FB13F783F040C433C43C0F858
:10D70000004203B0F0BD1FB50DF10F0301930023DC
:10D710008DF80F101A4619460093FFF7ABFF05B0BE
:10D720005DF804FB70B5044608461646FDF72AFB73
:10D73000083034F810300D46DA0509D5C3F3432319
:10D7400004EBC3023146284654F8333052689847F8
:10D75000A3682BB131462846E268BDE870401847FF
:10D7600070BD70B50679044630460D46FDF78CFB5A
:10D77000B0B13046FDF776FB90B93046FDF762FB5D
:10D78000012322688340C2F80833226803B202EB07
:10D790008303D3F8102522F00302C3F8102570BDCF
:10D7A0002846BDE870400021FFF7ADBFFDF780BC03
:10D7B000FFF7D7BF08B1FBF7C9BD7047704740B14D
:10D7C000C368587810F001001EBF1878B0FA80F0D6
:10D7D0004009704700F0D7B900F0C8B9EFF30580F1
:10D7E000003818BF0120704708B54FF02002EFF352
:10D7F000118382F31288BFF36F8FFBF7F3FAF4E71C
:10D8000090F90E308B4201D0FEF76ABB00207047C2
:10D81000D0E9003213605A600023C0E9003370473A
:10D8200008B5FFF7F5FF437B23F0020343730023A2
:10D83000836008BD38B504460D46FEF783FA637B66
:10D8400043F002036373E5B1A5602B689D4209D1E3
:10D850006B68C4E900531C606C6012E06A68934214
:10D86000F6D01B68002BF3D094F90E2093F90E101C
:10D870008A42F3D09142F1DD5A68C4E90032146063
:10D880005C6038BD10B54FF02003EFF3118483F3D3
:10D890001288BFF36F8FFEF721FA84F31188BFF36C
:10D8A0006F8F10BD10B50446183000F0B8F84FF077
:10D8B0002003EFF3118183F31288BFF36F8F627B34
:10D8C00012F0100204D081F31188BFF36F8F10BDE6
:10D8D0002046BDE81040FEF765BA08B54FF02002BB
:10D8E000EFF3118182F31288BFF36F8F83680BB15E
:10D8F000FFF796FF81F31188BFF36F8F08BD38B52E
:10D9000004464FF02003EFF3118583F31288BFF331
:10D910006F8F437B13F0280F0BD183680BB1FFF798
:10D920007FFF637B51B903F0FB0320466373FEF76F
:10D93000D5F985F31188BFF36F8F38BD03F0EB0382
:10D94000F3E701211838FFF7DABF08B503464FF0B7
:10D950002002EFF3118182F31288BFF36F8F00680A
:10D96000834207D008B1FFF75BFF81F31188BFF353
:10D970006F8F08BD0020F8E738B54FF02003EFF3B4
:10D98000118583F31288BFF36F8F0468A0420DD016
:10D9900034B12046FFF744FF04F1180000F03FF8CF
:10D9A00085F31188BFF36F8F204638BD0024F7E759
:10D9B000034620B9EFF305820AB9FBF727B983F3D1
:10D9C0001188BFF36F8F70474FF02003EFF3118082
:10D9D00083F31288BFF36F8FFFF7EABF4FF0200287
:10D9E000EFF3118182F31288BFF36F8F027BD207AE
:10D9F0000AD581F31188BFF36F8F404080F31188FF
:10DA00004FF0040002DF7047437B1B0704D581F30E
:10DA10001188BFF36F8F70470122FEF7C3B910B5AD
:10DA20004FF02002EFF3118482F31288BFF36F8F5F
:10DA300003683BB1FEF7E8FB002084F31188BFF3D5
:10DA40006F8F10BD6FF01500F7E708B5FEF7D8FC33
:10DA500008BDFEF7D5BC0023C0E9081200F118028A
:10DA6000C0E90622C0E9003303634363704710B581
:10DA70000446FFF7D4FFB0B9636A0BB1204698475C
:10DA800004F11800FFF761FF68B1FFF7FBFE4FF0EC
:10DA90002003EFF3118083F31288BFF36F8FBDE88B
:10DAA0001040FFF785BF10BD0246014410B58A4201
:10DAB000134603D01C780132002CF8D1181A10BD7F
:10DAC000F0B5C3F13707044603F01F031046FFB259
:10DAD000082BE6B232D0102B3DD06508A40845EAE9
